{
  "contractName": "AIModelMarketplace",
  "abi": [
    {
      "anonymous": false,
      "inputs": [
        {
          "indexed": false,
          "internalType": "uint256",
          "name": "modelId",
          "type": "uint256"
        },
        {
          "indexed": false,
          "internalType": "string",
          "name": "name",
          "type": "string"
        },
        {
          "indexed": false,
          "internalType": "uint256",
          "name": "price",
          "type": "uint256"
        },
        {
          "indexed": false,
          "internalType": "address",
          "name": "creator",
          "type": "address"
        }
      ],
      "name": "ModelListed",
      "type": "event"
    },
    {
      "anonymous": false,
      "inputs": [
        {
          "indexed": false,
          "internalType": "uint256",
          "name": "modelId",
          "type": "uint256"
        },
        {
          "indexed": false,
          "internalType": "address",
          "name": "buyer",
          "type": "address"
        }
      ],
      "name": "ModelPurchased",
      "type": "event"
    },
    {
      "anonymous": false,
      "inputs": [
        {
          "indexed": false,
          "internalType": "uint256",
          "name": "modelId",
          "type": "uint256"
        },
        {
          "indexed": false,
          "internalType": "uint8",
          "name": "rating",
          "type": "uint8"
        },
        {
          "indexed": false,
          "internalType": "address",
          "name": "rater",
          "type": "address"
        }
      ],
      "name": "ModelRated",
      "type": "event"
    },
    {
      "inputs": [
        {
          "internalType": "uint256",
          "name": "",
          "type": "uint256"
        },
        {
          "internalType": "address",
          "name": "",
          "type": "address"
        }
      ],
      "name": "hasPurchased",
      "outputs": [
        {
          "internalType": "bool",
          "name": "",
          "type": "bool"
        }
      ],
      "stateMutability": "view",
      "type": "function"
    },
    {
      "inputs": [
        {
          "internalType": "uint256",
          "name": "",
          "type": "uint256"
        }
      ],
      "name": "models",
      "outputs": [
        {
          "internalType": "string",
          "name": "name",
          "type": "string"
        },
        {
          "internalType": "string",
          "name": "description",
          "type": "string"
        },
        {
          "internalType": "uint256",
          "name": "price",
          "type": "uint256"
        },
        {
          "internalType": "address",
          "name": "creator",
          "type": "address"
        },
        {
          "internalType": "uint256",
          "name": "totalRating",
          "type": "uint256"
        },
        {
          "internalType": "uint256",
          "name": "totalReviews",
          "type": "uint256"
        }
      ],
      "stateMutability": "view",
      "type": "function"
    },
    {
      "stateMutability": "payable",
      "type": "receive"
    },
    {
      "inputs": [
        {
          "internalType": "string",
          "name": "name",
          "type": "string"
        },
        {
          "internalType": "string",
          "name": "description",
          "type": "string"
        },
        {
          "internalType": "uint256",
          "name": "price",
          "type": "uint256"
        }
      ],
      "name": "listModel",
      "outputs": [],
      "stateMutability": "nonpayable",
      "type": "function"
    },
    {
      "inputs": [
        {
          "internalType": "uint256",
          "name": "modelId",
          "type": "uint256"
        }
      ],
      "name": "purchaseModel",
      "outputs": [],
      "stateMutability": "payable",
      "type": "function"
    },
    {
      "inputs": [
        {
          "internalType": "uint256",
          "name": "modelId",
          "type": "uint256"
        },
        {
          "internalType": "uint8",
          "name": "rating",
          "type": "uint8"
        }
      ],
      "name": "rateModel",
      "outputs": [],
      "stateMutability": "nonpayable",
      "type": "function"
    },
    {
      "inputs": [
        {
          "internalType": "uint256",
          "name": "modelId",
          "type": "uint256"
        }
      ],
      "name": "getModelDetails",
      "outputs": [
        {
          "internalType": "string",
          "name": "",
          "type": "string"
        },
        {
          "internalType": "string",
          "name": "",
          "type": "string"
        },
        {
          "internalType": "uint256",
          "name": "",
          "type": "uint256"
        },
        {
          "internalType": "address",
          "name": "",
          "type": "address"
        },
        {
          "internalType": "uint256",
          "name": "",
          "type": "uint256"
        }
      ],
      "stateMutability": "view",
      "type": "function"
    },
    {
      "inputs": [],
      "name": "withdrawFunds",
      "outputs": [],
      "stateMutability": "nonpayable",
      "type": "function"
    }
  ],
  "bytecode": "0x608060405234801561000f575f80fd5b506119a08061001d5f395ff3fe608060405260043610610073575f3560e01c806331fc042f1161004d57806331fc042f146100e45780636a030ca914610124578063dc74686214610165578063dc9da2f8146101815761007a565b806312ee1c0e1461007e5780631c788a9a146100a657806324600fc3146100ce5761007a565b3661007a57005b5f80fd5b348015610089575f80fd5b506100a4600480360381019061009f9190610d85565b6101bd565b005b3480156100b1575f80fd5b506100cc60048036038101906100c79190610e43565b6103d1565b005b3480156100d9575f80fd5b506100e261059e565b005b3480156100ef575f80fd5b5061010a60048036038101906101059190610e81565b61062b565b60405161011b959493929190610f74565b60405180910390f35b34801561012f575f80fd5b5061014a60048036038101906101459190610e81565b61081c565b60405161015c96959493929190610fd3565b60405180910390f35b61017f600480360381019061017a9190610e81565b61098d565b005b34801561018c575f80fd5b506101a760048036038101906101a2919061106a565b610bdb565b6040516101b491906110c2565b60405180910390f35b5f81116101ff576040517f08c379a00000000000000000000000000000000000000000000000000000000081526004016101f690611125565b60405180910390fd5b5f835111610242576040517f08c379a00000000000000000000000000000000000000000000000000000000081526004016102399061118d565b60405180910390fd5b5f825111610285576040517f08c379a000000000000000000000000000000000000000000000000000000000815260040161027c906111f5565b60405180910390fd5b5f6040518060c001604052808581526020018481526020018381526020013373ffffffffffffffffffffffffffffffffffffffff1681526020015f81526020015f815250908060018154018082558091505060019003905f5260205f2090600602015f909190919091505f820151815f019081610302919061140d565b506020820151816001019081610318919061140d565b50604082015181600201556060820151816003015f6101000a81548173ffffffffffffffffffffffffffffffffffffffff021916908373ffffffffffffffffffffffffffffffffffffffff1602179055506080820151816004015560a0820151816005015550507f4eed6af0d402cb471979373747ee3f09e77a623bff41d503ce96edacb72d858f60015f805490506103b19190611509565b8483336040516103c4949392919061153c565b60405180910390a1505050565b5f805490508210610417576040517f08c379a000000000000000000000000000000000000000000000000000000000815260040161040e906115d0565b60405180910390fd5b60015f8381526020019081526020015f205f3373ffffffffffffffffffffffffffffffffffffffff1673ffffffffffffffffffffffffffffffffffffffff1681526020019081526020015f205f9054906101000a900460ff166104af576040517f08c379a00000000000000000000000000000000000000000000000000000000081526004016104a69061165e565b60405180910390fd5b5f8160ff161180156104c5575060058160ff1611155b610504576040517f08c379a00000000000000000000000000000000000000000000000000000000081526004016104fb906116c6565b60405180910390fd5b5f808381548110610518576105176116e4565b5b905f5260205f20906006020190508160ff16816004015f82825461053c9190611711565b925050819055506001816005015f8282546105579190611711565b925050819055507f4129c8696bb756892ebbda9c4396a685357b1f8eddd505fee0f194e56f8c9a2b83833360405161059193929190611753565b60405180910390a1505050565b5f4790505f81116105e4576040517f08c379a00000000000000000000000000000000000000000000000000000000081526004016105db906117d2565b60405180910390fd5b3373ffffffffffffffffffffffffffffffffffffffff166108fc8290811502906040515f60405180830381858888f19350505050158015610627573d5f803e3d5ffd5b5050565b6060805f805f80805490508610610677576040517f08c379a000000000000000000000000000000000000000000000000000000000815260040161066e906115d0565b60405180910390fd5b5f80878154811061068b5761068a6116e4565b5b905f5260205f20906006020190505f808260050154116106ab575f6106c0565b816005015482600401546106bf919061181d565b5b9050815f01826001018360020154846003015f9054906101000a900473ffffffffffffffffffffffffffffffffffffffff16848480546106ff90611240565b80601f016020809104026020016040519081016040528092919081815260200182805461072b90611240565b80156107765780601f1061074d57610100808354040283529160200191610776565b820191905f5260205f20905b81548152906001019060200180831161075957829003601f168201915b5050505050945083805461078990611240565b80601f01602080910402602001604051908101604052809291908181526020018280546107b590611240565b80156108005780601f106107d757610100808354040283529160200191610800565b820191905f5260205f20905b8154815290600101906020018083116107e357829003601f168201915b5050505050935096509650965096509650505091939590929450565b5f818154811061082a575f80fd5b905f5260205f2090600602015f91509050805f01805461084990611240565b80601f016020809104026020016040519081016040528092919081815260200182805461087590611240565b80156108c05780601f10610897576101008083540402835291602001916108c0565b820191905f5260205f20905b8154815290600101906020018083116108a357829003601f168201915b5050505050908060010180546108d590611240565b80601f016020809104026020016040519081016040528092919081815260200182805461090190611240565b801561094c5780601f106109235761010080835404028352916020019161094c565b820191905f5260205f20905b81548152906001019060200180831161092f57829003601f168201915b505050505090806002015490806003015f9054906101000a900473ffffffffffffffffffffffffffffffffffffffff16908060040154908060050154905086565b5f8054905081106109d3576040517f08c379a00000000000000000000000000000000000000000000000000000000081526004016109ca906115d0565b60405180910390fd5b5f8082815481106109e7576109e66116e4565b5b905f5260205f209060060201905080600201543414610a3b576040517f08c379a0000000000000000000000000000000000000000000000000000000008152600401610a3290611897565b60405180910390fd5b60015f8381526020019081526020015f205f3373ffffffffffffffffffffffffffffffffffffffff1673ffffffffffffffffffffffffffffffffffffffff1681526020019081526020015f205f9054906101000a900460ff1615610ad4576040517f08c379a0000000000000000000000000000000000000000000000000000000008152600401610acb90611925565b60405180910390fd5b6001805f8481526020019081526020015f205f3373ffffffffffffffffffffffffffffffffffffffff1673ffffffffffffffffffffffffffffffffffffffff1681526020019081526020015f205f6101000a81548160ff021916908315150217905550806003015f9054906101000a900473ffffffffffffffffffffffffffffffffffffffff1673ffffffffffffffffffffffffffffffffffffffff166108fc3490811502906040515f60405180830381858888f19350505050158015610b9d573d5f803e3d5ffd5b507fc8581808129c51c0416692a5ea1b58e080ae8f21e384eefe2f2dc85d231d12ba8233604051610bcf929190611943565b60405180910390a15050565b6001602052815f5260405f20602052805f5260405f205f915091509054906101000a900460ff1681565b5f604051905090565b5f80fd5b5f80fd5b5f80fd5b5f80fd5b5f601f19601f8301169050919050565b7f4e487b71000000000000000000000000000000000000000000000000000000005f52604160045260245ffd5b610c6482610c1e565b810181811067ffffffffffffffff82111715610c8357610c82610c2e565b5b80604052505050565b5f610c95610c05565b9050610ca18282610c5b565b919050565b5f67ffffffffffffffff821115610cc057610cbf610c2e565b5b610cc982610c1e565b9050602081019050919050565b828183375f83830152505050565b5f610cf6610cf184610ca6565b610c8c565b905082815260208101848484011115610d1257610d11610c1a565b5b610d1d848285610cd6565b509392505050565b5f82601f830112610d3957610d38610c16565b5b8135610d49848260208601610ce4565b91505092915050565b5f819050919050565b610d6481610d52565b8114610d6e575f80fd5b50565b5f81359050610d7f81610d5b565b92915050565b5f805f60608486031215610d9c57610d9b610c0e565b5b5f84013567ffffffffffffffff811115610db957610db8610c12565b5b610dc586828701610d25565b935050602084013567ffffffffffffffff811115610de657610de5610c12565b5b610df286828701610d25565b9250506040610e0386828701610d71565b9150509250925092565b5f60ff82169050919050565b610e2281610e0d565b8114610e2c575f80fd5b50565b5f81359050610e3d81610e19565b92915050565b5f8060408385031215610e5957610e58610c0e565b5b5f610e6685828601610d71565b9250506020610e7785828601610e2f565b9150509250929050565b5f60208284031215610e9657610e95610c0e565b5b5f610ea384828501610d71565b91505092915050565b5f81519050919050565b5f82825260208201905092915050565b5f5b83811015610ee3578082015181840152602081019050610ec8565b5f8484015250505050565b5f610ef882610eac565b610f028185610eb6565b9350610f12818560208601610ec6565b610f1b81610c1e565b840191505092915050565b610f2f81610d52565b82525050565b5f73ffffffffffffffffffffffffffffffffffffffff82169050919050565b5f610f5e82610f35565b9050919050565b610f6e81610f54565b82525050565b5f60a0820190508181035f830152610f8c8188610eee565b90508181036020830152610fa08187610eee565b9050610faf6040830186610f26565b610fbc6060830185610f65565b610fc96080830184610f26565b9695505050505050565b5f60c0820190508181035f830152610feb8189610eee565b90508181036020830152610fff8188610eee565b905061100e6040830187610f26565b61101b6060830186610f65565b6110286080830185610f26565b61103560a0830184610f26565b979650505050505050565b61104981610f54565b8114611053575f80fd5b50565b5f8135905061106481611040565b92915050565b5f80604083850312156110805761107f610c0e565b5b5f61108d85828601610d71565b925050602061109e85828601611056565b9150509250929050565b5f8115159050919050565b6110bc816110a8565b82525050565b5f6020820190506110d55f8301846110b3565b92915050565b7f5072696365206d7573742062652067726561746572207468616e207a65726f005f82015250565b5f61110f601f83610eb6565b915061111a826110db565b602082019050919050565b5f6020820190508181035f83015261113c81611103565b9050919050565b7f4d6f64656c206e616d65206973207265717569726564000000000000000000005f82015250565b5f611177601683610eb6565b915061118282611143565b602082019050919050565b5f6020820190508181035f8301526111a48161116b565b9050919050565b7f4d6f64656c206465736372697074696f6e2069732072657175697265640000005f82015250565b5f6111df601d83610eb6565b91506111ea826111ab565b602082019050919050565b5f6020820190508181035f83015261120c816111d3565b9050919050565b7f4e487b71000000000000000000000000000000000000000000000000000000005f52602260045260245ffd5b5f600282049050600182168061125757607f821691505b60208210810361126a57611269611213565b5b50919050565b5f819050815f5260205f209050919050565b5f6020601f8301049050919050565b5f82821b905092915050565b5f600883026112cc7fffffffffffffffffffffffffffffffffffffffffffffffffffffffffffffffff82611291565b6112d68683611291565b95508019841693508086168417925050509392505050565b5f819050919050565b5f61131161130c61130784610d52565b6112ee565b610d52565b9050919050565b5f819050919050565b61132a836112f7565b61133e61133682611318565b84845461129d565b825550505050565b5f90565b611352611346565b61135d818484611321565b505050565b5b81811015611380576113755f8261134a565b600181019050611363565b5050565b601f8211156113c55761139681611270565b61139f84611282565b810160208510156113ae578190505b6113c26113ba85611282565b830182611362565b50505b505050565b5f82821c905092915050565b5f6113e55f19846008026113ca565b1980831691505092915050565b5f6113fd83836113d6565b9150826002028217905092915050565b61141682610eac565b67ffffffffffffffff81111561142f5761142e610c2e565b5b6114398254611240565b611444828285611384565b5f60209050601f831160018114611475575f8415611463578287015190505b61146d85826113f2565b8655506114d4565b601f19841661148386611270565b5f5b828110156114aa57848901518255600182019150602085019450602081019050611485565b868310156114c757848901516114c3601f8916826113d6565b8355505b6001600288020188555050505b505050505050565b7f4e487b71000000000000000000000000000000000000000000000000000000005f52601160045260245ffd5b5f61151382610d52565b915061151e83610d52565b9250828203905081811115611536576115356114dc565b5b92915050565b5f60808201905061154f5f830187610f26565b81810360208301526115618186610eee565b90506115706040830185610f26565b61157d6060830184610f65565b95945050505050565b7f496e76616c6964206d6f64656c204944000000000000000000000000000000005f82015250565b5f6115ba601083610eb6565b91506115c582611586565b602082019050919050565b5f6020820190508181035f8301526115e7816115ae565b9050919050565b7f596f75206d75737420707572636861736520746865206d6f64656c206265666f5f8201527f726520726174696e670000000000000000000000000000000000000000000000602082015250565b5f611648602983610eb6565b9150611653826115ee565b604082019050919050565b5f6020820190508181035f8301526116758161163c565b9050919050565b7f526174696e67206d757374206265206265747765656e203120616e64203500005f82015250565b5f6116b0601e83610eb6565b91506116bb8261167c565b602082019050919050565b5f6020820190508181035f8301526116dd816116a4565b9050919050565b7f4e487b71000000000000000000000000000000000000000000000000000000005f52603260045260245ffd5b5f61171b82610d52565b915061172683610d52565b925082820190508082111561173e5761173d6114dc565b5b92915050565b61174d81610e0d565b82525050565b5f6060820190506117665f830186610f26565b6117736020830185611744565b6117806040830184610f65565b949350505050565b7f4e6f2066756e647320617661696c61626c6500000000000000000000000000005f82015250565b5f6117bc601283610eb6565b91506117c782611788565b602082019050919050565b5f6020820190508181035f8301526117e9816117b0565b9050919050565b7f4e487b71000000000000000000000000000000000000000000000000000000005f52601260045260245ffd5b5f61182782610d52565b915061183283610d52565b925082611842576118416117f0565b5b828204905092915050565b7f496e636f7272656374207061796d656e7420616d6f756e7400000000000000005f82015250565b5f611881601883610eb6565b915061188c8261184d565b602082019050919050565b5f6020820190508181035f8301526118ae81611875565b9050919050565b7f596f75206861766520616c7265616479207075726368617365642074686973205f8201527f6d6f64656c000000000000000000000000000000000000000000000000000000602082015250565b5f61190f602583610eb6565b915061191a826118b5565b604082019050919050565b5f6020820190508181035f83015261193c81611903565b9050919050565b5f6040820190506119565f830185610f26565b6119636020830184610f65565b939250505056fea26469706673582212203812d6258729d5ec3f972b0aec1ac0b1cb4a1d9b32a3fba086ac864d30c8601864736f6c63430008150033",
  "immutableReferences": {},
  "source": "// SPDX-License-Identifier: MIT\r\npragma solidity ^0.8.0;\r\n\r\ncontract AIModelMarketplace {\r\n    struct Model {\r\n        string name;\r\n        string description;\r\n        uint256 price;\r\n        address creator;\r\n        uint256 totalRating;\r\n        uint256 totalReviews;\r\n    }\r\n\r\n    // Array to store all models\r\n    Model[] public models;\r\n\r\n    // Mapping to track which users purchased which models\r\n    mapping(uint256 => mapping(address => bool)) public hasPurchased;\r\n\r\n    // Event declarations for better logging\r\n    event ModelListed(uint256 modelId, string name, uint256 price, address creator);\r\n    event ModelPurchased(uint256 modelId, address buyer);\r\n    event ModelRated(uint256 modelId, uint8 rating, address rater);\r\n\r\n    // Function to list a new AI model\r\n    function listModel(string memory name, string memory description, uint256 price) public {\r\n        require(price > 0, \"Price must be greater than zero\");\r\n        require(bytes(name).length > 0, \"Model name is required\");\r\n        require(bytes(description).length > 0, \"Model description is required\");\r\n\r\n        models.push(Model({\r\n            name: name,\r\n            description: description,\r\n            price: price,\r\n            creator: msg.sender,\r\n            totalRating: 0,\r\n            totalReviews: 0\r\n        }));\r\n\r\n        emit ModelListed(models.length - 1, name, price, msg.sender);\r\n    }\r\n\r\n    // Function to purchase a model\r\n    function purchaseModel(uint256 modelId) public payable {\r\n        require(modelId < models.length, \"Invalid model ID\");\r\n        Model storage model = models[modelId];\r\n\r\n        require(msg.value == model.price, \"Incorrect payment amount\");\r\n        require(!hasPurchased[modelId][msg.sender], \"You have already purchased this model\");\r\n\r\n        hasPurchased[modelId][msg.sender] = true;\r\n\r\n        // Transfer payment to the creator\r\n        payable(model.creator).transfer(msg.value);\r\n\r\n        emit ModelPurchased(modelId, msg.sender);\r\n    }\r\n\r\n    // Function to rate a purchased model\r\n    function rateModel(uint256 modelId, uint8 rating) public {\r\n        require(modelId < models.length, \"Invalid model ID\");\r\n        require(hasPurchased[modelId][msg.sender], \"You must purchase the model before rating\");\r\n        require(rating > 0 && rating <= 5, \"Rating must be between 1 and 5\");\r\n\r\n        Model storage model = models[modelId];\r\n\r\n        model.totalRating += rating;\r\n        model.totalReviews += 1;\r\n\r\n        emit ModelRated(modelId, rating, msg.sender);\r\n    }\r\n\r\n    // Function to retrieve model details\r\n    function getModelDetails(uint256 modelId)\r\n        public\r\n        view\r\n        returns (string memory, string memory, uint256, address, uint256)\r\n    {\r\n        require(modelId < models.length, \"Invalid model ID\");\r\n\r\n        Model storage model = models[modelId];\r\n        uint256 averageRating = model.totalReviews > 0 ? model.totalRating / model.totalReviews : 0;\r\n\r\n        return (\r\n            model.name,\r\n            model.description,\r\n            model.price,\r\n            model.creator,\r\n            averageRating\r\n        );\r\n    }\r\n\r\n    // Function to withdraw funds (contract-level, if applicable)\r\n    function withdrawFunds() public {\r\n        uint256 balance = address(this).balance;\r\n        require(balance > 0, \"No funds available\");\r\n        payable(msg.sender).transfer(balance);\r\n    }\r\n\r\n    // Fallback function to receive Ether\r\n    receive() external payable {}\r\n}\r\n",
  "sourcePath": "C:\\Users\\User\\Desktop\\decApp\\contracts\\AIModelMarketplace.sol",
  "compiler": {
    "name": "solc",
    "version": "0.8.21+commit.d9974bed.Emscripten.clang"
  },
  "schemaVersion": "3.4.16",
  "updatedAt": "2025-01-08T19:28:34.666Z",
  "devdoc": {
    "kind": "dev",
    "methods": {},
    "version": 1
  },
  "userdoc": {
    "kind": "user",
    "methods": {},
    "version": 1
  }
}