{
  "contractName": "AIModelMarketplace",
  "abi": [
    {
      "anonymous": false,
      "inputs": [
        {
          "indexed": false,
          "internalType": "uint256",
          "name": "modelId",
          "type": "uint256"
        },
        {
          "indexed": false,
          "internalType": "string",
          "name": "name",
          "type": "string"
        },
        {
          "indexed": false,
          "internalType": "uint256",
          "name": "price",
          "type": "uint256"
        },
        {
          "indexed": false,
          "internalType": "address",
          "name": "creator",
          "type": "address"
        }
      ],
      "name": "ModelListed",
      "type": "event"
    },
    {
      "anonymous": false,
      "inputs": [
        {
          "indexed": false,
          "internalType": "uint256",
          "name": "modelId",
          "type": "uint256"
        },
        {
          "indexed": false,
          "internalType": "address",
          "name": "buyer",
          "type": "address"
        }
      ],
      "name": "ModelPurchased",
      "type": "event"
    },
    {
      "anonymous": false,
      "inputs": [
        {
          "indexed": false,
          "internalType": "uint256",
          "name": "modelId",
          "type": "uint256"
        },
        {
          "indexed": false,
          "internalType": "uint8",
          "name": "rating",
          "type": "uint8"
        },
        {
          "indexed": false,
          "internalType": "address",
          "name": "rater",
          "type": "address"
        }
      ],
      "name": "ModelRated",
      "type": "event"
    },
    {
      "inputs": [
        {
          "internalType": "uint256",
          "name": "",
          "type": "uint256"
        },
        {
          "internalType": "address",
          "name": "",
          "type": "address"
        }
      ],
      "name": "hasPurchased",
      "outputs": [
        {
          "internalType": "bool",
          "name": "",
          "type": "bool"
        }
      ],
      "stateMutability": "view",
      "type": "function",
      "constant": true
    },
    {
      "inputs": [
        {
          "internalType": "uint256",
          "name": "",
          "type": "uint256"
        }
      ],
      "name": "models",
      "outputs": [
        {
          "internalType": "string",
          "name": "name",
          "type": "string"
        },
        {
          "internalType": "string",
          "name": "description",
          "type": "string"
        },
        {
          "internalType": "uint256",
          "name": "price",
          "type": "uint256"
        },
        {
          "internalType": "address",
          "name": "creator",
          "type": "address"
        },
        {
          "internalType": "uint256",
          "name": "totalRating",
          "type": "uint256"
        },
        {
          "internalType": "uint256",
          "name": "totalReviews",
          "type": "uint256"
        },
        {
          "internalType": "uint256",
          "name": "averageRating",
          "type": "uint256"
        }
      ],
      "stateMutability": "view",
      "type": "function",
      "constant": true
    },
    {
      "stateMutability": "payable",
      "type": "receive",
      "payable": true
    },
    {
      "inputs": [
        {
          "internalType": "string",
          "name": "name",
          "type": "string"
        },
        {
          "internalType": "string",
          "name": "description",
          "type": "string"
        },
        {
          "internalType": "uint256",
          "name": "price",
          "type": "uint256"
        }
      ],
      "name": "listModel",
      "outputs": [],
      "stateMutability": "nonpayable",
      "type": "function"
    },
    {
      "inputs": [
        {
          "internalType": "uint256",
          "name": "modelId",
          "type": "uint256"
        }
      ],
      "name": "purchaseModel",
      "outputs": [],
      "stateMutability": "payable",
      "type": "function",
      "payable": true
    },
    {
      "inputs": [
        {
          "internalType": "uint256",
          "name": "modelId",
          "type": "uint256"
        },
        {
          "internalType": "uint8",
          "name": "rating",
          "type": "uint8"
        }
      ],
      "name": "rateModel",
      "outputs": [],
      "stateMutability": "nonpayable",
      "type": "function"
    },
    {
      "inputs": [
        {
          "internalType": "uint256",
          "name": "modelId",
          "type": "uint256"
        }
      ],
      "name": "getModelDetails",
      "outputs": [
        {
          "internalType": "string",
          "name": "",
          "type": "string"
        },
        {
          "internalType": "string",
          "name": "",
          "type": "string"
        },
        {
          "internalType": "uint256",
          "name": "",
          "type": "uint256"
        },
        {
          "internalType": "address",
          "name": "",
          "type": "address"
        },
        {
          "internalType": "uint256",
          "name": "",
          "type": "uint256"
        },
        {
          "internalType": "uint256",
          "name": "",
          "type": "uint256"
        }
      ],
      "stateMutability": "view",
      "type": "function",
      "constant": true
    },
    {
      "inputs": [],
      "name": "getAllModels",
      "outputs": [
        {
          "internalType": "uint256[]",
          "name": "",
          "type": "uint256[]"
        }
      ],
      "stateMutability": "view",
      "type": "function",
      "constant": true
    },
    {
      "inputs": [],
      "name": "withdrawFunds",
      "outputs": [],
      "stateMutability": "nonpayable",
      "type": "function"
    }
  ],
  "bytecode": "0x608060405234801561001057600080fd5b50611ac0806100206000396000f3fe60806040526004361061007f5760003560e01c80636a030ca91161004e5780636a030ca914610136578063a9a5cb3a14610179578063dc746862146101a4578063dc9da2f8146101c057610086565b806312ee1c0e1461008b5780631c788a9a146100b457806324600fc3146100dd57806331fc042f146100f457610086565b3661008657005b600080fd5b34801561009757600080fd5b506100b260048036038101906100ad9190610f5a565b6101fd565b005b3480156100c057600080fd5b506100db60048036038101906100d6919061103e565b61043d565b005b3480156100e957600080fd5b506100f2610658565b005b34801561010057600080fd5b5061011b60048036038101906101169190610fd9565b6106ea565b60405161012d9695949392919061143d565b60405180910390f35b34801561014257600080fd5b5061015d60048036038101906101589190610fd9565b6108ef565b60405161017097969594939291906114ac565b60405180910390f35b34801561018557600080fd5b5061018e610a71565b60405161019b9190611400565b60405180910390f35b6101be60048036038101906101b99190610fd9565b610b5b565b005b3480156101cc57600080fd5b506101e760048036038101906101e29190611002565b610de1565b6040516101f49190611422565b60405180910390f35b60008111610240576040517f08c379a000000000000000000000000000000000000000000000000000000000815260040161023790611589565b60405180910390fd5b6000835111610284576040517f08c379a000000000000000000000000000000000000000000000000000000000815260040161027b90611629565b60405180910390fd5b60008251116102c8576040517f08c379a00000000000000000000000000000000000000000000000000000000081526004016102bf90611549565b60405180910390fd5b60006040518060e001604052808581526020018481526020018381526020013373ffffffffffffffffffffffffffffffffffffffff168152602001600081526020016000815260200160008152509080600181540180825580915050600190039060005260206000209060070201600090919091909150600082015181600001908051906020019061035b929190610e10565b506020820151816001019080519060200190610378929190610e10565b506040820151816002015560608201518160030160006101000a81548173ffffffffffffffffffffffffffffffffffffffff021916908373ffffffffffffffffffffffffffffffffffffffff1602179055506080820151816004015560a0820151816005015560c0820151816006015550507f4eed6af0d402cb471979373747ee3f09e77a623bff41d503ce96edacb72d858f600160008054905061041d9190611832565b8483336040516104309493929190611672565b60405180910390a1505050565b6000805490508210610484576040517f08c379a000000000000000000000000000000000000000000000000000000000815260040161047b90611529565b60405180910390fd5b6001600083815260200190815260200160002060003373ffffffffffffffffffffffffffffffffffffffff1673ffffffffffffffffffffffffffffffffffffffff16815260200190815260200160002060009054906101000a900460ff16610521576040517f08c379a000000000000000000000000000000000000000000000000000000000815260040161051890611609565b60405180910390fd5b60008160ff16118015610538575060058160ff1611155b610577576040517f08c379a000000000000000000000000000000000000000000000000000000000815260040161056e906115e9565b60405180910390fd5b60008083815481106105b2577f4e487b7100000000000000000000000000000000000000000000000000000000600052603260045260246000fd5b906000526020600020906007020190508160ff168160040160008282546105d991906117ab565b9250508190555060018160050160008282546105f591906117ab565b92505081905550806005015481600401546106109190611801565b81600601819055507f4129c8696bb756892ebbda9c4396a685357b1f8eddd505fee0f194e56f8c9a2b83833360405161064b939291906116be565b60405180910390a1505050565b6000479050600081116106a0576040517f08c379a000000000000000000000000000000000000000000000000000000000815260040161069790611569565b60405180910390fd5b3373ffffffffffffffffffffffffffffffffffffffff166108fc829081150290604051600060405180830381858888f193505050501580156106e6573d6000803e3d6000fd5b5050565b606080600080600080600080549050871061073a576040517f08c379a000000000000000000000000000000000000000000000000000000000815260040161073190611529565b60405180910390fd5b6000808881548110610775577f4e487b7100000000000000000000000000000000000000000000000000000000600052603260045260246000fd5b90600052602060002090600702019050806000018160010182600201548360030160009054906101000a900473ffffffffffffffffffffffffffffffffffffffff16846006015485600501548580546107cd906118fd565b80601f01602080910402602001604051908101604052809291908181526020018280546107f9906118fd565b80156108465780601f1061081b57610100808354040283529160200191610846565b820191906000526020600020905b81548152906001019060200180831161082957829003601f168201915b50505050509550848054610859906118fd565b80601f0160208091040260200160405190810160405280929190818152602001828054610885906118fd565b80156108d25780601f106108a7576101008083540402835291602001916108d2565b820191906000526020600020905b8154815290600101906020018083116108b557829003601f168201915b505050505094509650965096509650965096505091939550919395565b600081815481106108ff57600080fd5b9060005260206000209060070201600091509050806000018054610922906118fd565b80601f016020809104026020016040519081016040528092919081815260200182805461094e906118fd565b801561099b5780601f106109705761010080835404028352916020019161099b565b820191906000526020600020905b81548152906001019060200180831161097e57829003601f168201915b5050505050908060010180546109b0906118fd565b80601f01602080910402602001604051908101604052809291908181526020018280546109dc906118fd565b8015610a295780601f106109fe57610100808354040283529160200191610a29565b820191906000526020600020905b815481529060010190602001808311610a0c57829003601f168201915b5050505050908060020154908060030160009054906101000a900473ffffffffffffffffffffffffffffffffffffffff16908060040154908060050154908060060154905087565b60606000808054905067ffffffffffffffff811115610ab9577f4e487b7100000000000000000000000000000000000000000000000000000000600052604160045260246000fd5b604051908082528060200260200182016040528015610ae75781602001602082028036833780820191505090505b50905060005b600080549050811015610b535780828281518110610b34577f4e487b7100000000000000000000000000000000000000000000000000000000600052603260045260246000fd5b6020026020010181815250508080610b4b9061192f565b915050610aed565b508091505090565b6000805490508110610ba2576040517f08c379a0000000000000000000000000000000000000000000000000000000008152600401610b9990611529565b60405180910390fd5b6000808281548110610bdd577f4e487b7100000000000000000000000000000000000000000000000000000000600052603260045260246000fd5b9060005260206000209060070201905080600201543414610c33576040517f08c379a0000000000000000000000000000000000000000000000000000000008152600401610c2a906115c9565b60405180910390fd5b6001600083815260200190815260200160002060003373ffffffffffffffffffffffffffffffffffffffff1673ffffffffffffffffffffffffffffffffffffffff16815260200190815260200160002060009054906101000a900460ff1615610cd1576040517f08c379a0000000000000000000000000000000000000000000000000000000008152600401610cc8906115a9565b60405180910390fd5b600180600084815260200190815260200160002060003373ffffffffffffffffffffffffffffffffffffffff1673ffffffffffffffffffffffffffffffffffffffff16815260200190815260200160002060006101000a81548160ff0219169083151502179055508060030160009054906101000a900473ffffffffffffffffffffffffffffffffffffffff1673ffffffffffffffffffffffffffffffffffffffff166108fc349081150290604051600060405180830381858888f19350505050158015610da3573d6000803e3d6000fd5b507fc8581808129c51c0416692a5ea1b58e080ae8f21e384eefe2f2dc85d231d12ba8233604051610dd5929190611649565b60405180910390a15050565b60016020528160005260406000206020528060005260406000206000915091509054906101000a900460ff1681565b828054610e1c906118fd565b90600052602060002090601f016020900481019282610e3e5760008555610e85565b82601f10610e5757805160ff1916838001178555610e85565b82800160010185558215610e85579182015b82811115610e84578251825591602001919060010190610e69565b5b509050610e929190610e96565b5090565b5b80821115610eaf576000816000905550600101610e97565b5090565b6000610ec6610ec184611726565b6116f5565b905082815260208101848484011115610ede57600080fd5b610ee98482856118bb565b509392505050565b600081359050610f0081611a45565b92915050565b600082601f830112610f1757600080fd5b8135610f27848260208601610eb3565b91505092915050565b600081359050610f3f81611a5c565b92915050565b600081359050610f5481611a73565b92915050565b600080600060608486031215610f6f57600080fd5b600084013567ffffffffffffffff811115610f8957600080fd5b610f9586828701610f06565b935050602084013567ffffffffffffffff811115610fb257600080fd5b610fbe86828701610f06565b9250506040610fcf86828701610f30565b9150509250925092565b600060208284031215610feb57600080fd5b6000610ff984828501610f30565b91505092915050565b6000806040838503121561101557600080fd5b600061102385828601610f30565b925050602061103485828601610ef1565b9150509250929050565b6000806040838503121561105157600080fd5b600061105f85828601610f30565b925050602061107085828601610f45565b9150509250929050565b600061108683836113d3565b60208301905092915050565b61109b81611866565b82525050565b60006110ac82611766565b6110b68185611789565b93506110c183611756565b8060005b838110156110f25781516110d9888261107a565b97506110e48361177c565b9250506001810190506110c5565b5085935050505092915050565b61110881611878565b82525050565b600061111982611771565b611123818561179a565b93506111338185602086016118ca565b61113c81611a34565b840191505092915050565b600061115460108361179a565b91507f496e76616c6964206d6f64656c204944000000000000000000000000000000006000830152602082019050919050565b6000611194601d8361179a565b91507f4d6f64656c206465736372697074696f6e2069732072657175697265640000006000830152602082019050919050565b60006111d460128361179a565b91507f4e6f2066756e647320617661696c61626c6500000000000000000000000000006000830152602082019050919050565b6000611214601f8361179a565b91507f5072696365206d7573742062652067726561746572207468616e207a65726f006000830152602082019050919050565b600061125460258361179a565b91507f596f75206861766520616c72656164792070757263686173656420746869732060008301527f6d6f64656c0000000000000000000000000000000000000000000000000000006020830152604082019050919050565b60006112ba60188361179a565b91507f496e636f7272656374207061796d656e7420616d6f756e7400000000000000006000830152602082019050919050565b60006112fa601e8361179a565b91507f526174696e67206d757374206265206265747765656e203120616e64203500006000830152602082019050919050565b600061133a60298361179a565b91507f596f75206d75737420707572636861736520746865206d6f64656c206265666f60008301527f726520726174696e6700000000000000000000000000000000000000000000006020830152604082019050919050565b60006113a060168361179a565b91507f4d6f64656c206e616d65206973207265717569726564000000000000000000006000830152602082019050919050565b6113dc816118a4565b82525050565b6113eb816118a4565b82525050565b6113fa816118ae565b82525050565b6000602082019050818103600083015261141a81846110a1565b905092915050565b600060208201905061143760008301846110ff565b92915050565b600060c0820190508181036000830152611457818961110e565b9050818103602083015261146b818861110e565b905061147a60408301876113e2565b6114876060830186611092565b61149460808301856113e2565b6114a160a08301846113e2565b979650505050505050565b600060e08201905081810360008301526114c6818a61110e565b905081810360208301526114da818961110e565b90506114e960408301886113e2565b6114f66060830187611092565b61150360808301866113e2565b61151060a08301856113e2565b61151d60c08301846113e2565b98975050505050505050565b6000602082019050818103600083015261154281611147565b9050919050565b6000602082019050818103600083015261156281611187565b9050919050565b60006020820190508181036000830152611582816111c7565b9050919050565b600060208201905081810360008301526115a281611207565b9050919050565b600060208201905081810360008301526115c281611247565b9050919050565b600060208201905081810360008301526115e2816112ad565b9050919050565b60006020820190508181036000830152611602816112ed565b9050919050565b600060208201905081810360008301526116228161132d565b9050919050565b6000602082019050818103600083015261164281611393565b9050919050565b600060408201905061165e60008301856113e2565b61166b6020830184611092565b9392505050565b600060808201905061168760008301876113e2565b8181036020830152611699818661110e565b90506116a860408301856113e2565b6116b56060830184611092565b95945050505050565b60006060820190506116d360008301866113e2565b6116e060208301856113f1565b6116ed6040830184611092565b949350505050565b6000604051905081810181811067ffffffffffffffff8211171561171c5761171b611a05565b5b8060405250919050565b600067ffffffffffffffff82111561174157611740611a05565b5b601f19601f8301169050602081019050919050565b6000819050602082019050919050565b600081519050919050565b600081519050919050565b6000602082019050919050565b600082825260208201905092915050565b600082825260208201905092915050565b60006117b6826118a4565b91506117c1836118a4565b9250827fffffffffffffffffffffffffffffffffffffffffffffffffffffffffffffffff038211156117f6576117f5611978565b5b828201905092915050565b600061180c826118a4565b9150611817836118a4565b925082611827576118266119a7565b5b828204905092915050565b600061183d826118a4565b9150611848836118a4565b92508282101561185b5761185a611978565b5b828203905092915050565b600061187182611884565b9050919050565b60008115159050919050565b600073ffffffffffffffffffffffffffffffffffffffff82169050919050565b6000819050919050565b600060ff82169050919050565b82818337600083830152505050565b60005b838110156118e85780820151818401526020810190506118cd565b838111156118f7576000848401525b50505050565b6000600282049050600182168061191557607f821691505b60208210811415611929576119286119d6565b5b50919050565b600061193a826118a4565b91507fffffffffffffffffffffffffffffffffffffffffffffffffffffffffffffffff82141561196d5761196c611978565b5b600182019050919050565b7f4e487b7100000000000000000000000000000000000000000000000000000000600052601160045260246000fd5b7f4e487b7100000000000000000000000000000000000000000000000000000000600052601260045260246000fd5b7f4e487b7100000000000000000000000000000000000000000000000000000000600052602260045260246000fd5b7f4e487b7100000000000000000000000000000000000000000000000000000000600052604160045260246000fd5b6000601f19601f8301169050919050565b611a4e81611866565b8114611a5957600080fd5b50565b611a65816118a4565b8114611a7057600080fd5b50565b611a7c816118ae565b8114611a8757600080fd5b5056fea26469706673582212203271c675b0c5e819ab19520aab6a7cbcb99caf492f7959f4fff40a3574ab9e0e64736f6c63430008000033",
  "immutableReferences": {},
  "source": "// SPDX-License-Identifier: MIT\r\npragma solidity ^0.8.0;\r\n\r\ncontract AIModelMarketplace {\r\n\r\n    struct Model {\r\n        string name;\r\n        string description;\r\n        uint256 price;\r\n        address creator;\r\n        uint256 totalRating;\r\n        uint256 totalReviews;\r\n        uint256 averageRating; // Store the average rating to save on calculations\r\n    }\r\n\r\n    // Array to store all models\r\n    Model[] public models;\r\n\r\n    // Mapping to track which users purchased which models\r\n    mapping(uint256 => mapping(address => bool)) public hasPurchased;\r\n\r\n    // Event declarations for better logging\r\n    event ModelListed(uint256 modelId, string name, uint256 price, address creator);\r\n    event ModelPurchased(uint256 modelId, address buyer);\r\n    event ModelRated(uint256 modelId, uint8 rating, address rater);\r\n\r\n    // Function to list a new AI model\r\n    function listModel(string memory name, string memory description, uint256 price) public {\r\n        require(price > 0, \"Price must be greater than zero\");\r\n        require(bytes(name).length > 0, \"Model name is required\");\r\n        require(bytes(description).length > 0, \"Model description is required\");\r\n\r\n        models.push(Model({\r\n            name: name,\r\n            description: description,\r\n            price: price,\r\n            creator: msg.sender,\r\n            totalRating: 0,\r\n            totalReviews: 0,\r\n            averageRating: 0\r\n        }));\r\n\r\n        // Emit event for successful listing\r\n        emit ModelListed(models.length - 1, name, price, msg.sender);\r\n    }\r\n\r\n    // Function to purchase a model\r\n    function purchaseModel(uint256 modelId) public payable {\r\n        require(modelId < models.length, \"Invalid model ID\");\r\n        Model storage model = models[modelId];\r\n\r\n        require(msg.value == model.price, \"Incorrect payment amount\");\r\n        require(!hasPurchased[modelId][msg.sender], \"You have already purchased this model\");\r\n\r\n        hasPurchased[modelId][msg.sender] = true;\r\n\r\n        // Transfer payment to the creator\r\n        payable(model.creator).transfer(msg.value);\r\n\r\n        // Emit event for successful purchase\r\n        emit ModelPurchased(modelId, msg.sender);\r\n    }\r\n\r\n    // Function to rate a purchased model\r\n    function rateModel(uint256 modelId, uint8 rating) public {\r\n        require(modelId < models.length, \"Invalid model ID\");\r\n        require(hasPurchased[modelId][msg.sender], \"You must purchase the model before rating\");\r\n        require(rating > 0 && rating <= 5, \"Rating must be between 1 and 5\");\r\n\r\n        Model storage model = models[modelId];\r\n\r\n        // Update total rating and reviews count\r\n        model.totalRating += rating;\r\n        model.totalReviews += 1;\r\n\r\n        // Update average rating (simpler than recalculating each time)\r\n        model.averageRating = model.totalRating / model.totalReviews;\r\n\r\n        // Emit event for successful rating\r\n        emit ModelRated(modelId, rating, msg.sender);\r\n    }\r\n\r\n    // Function to retrieve model details\r\n    function getModelDetails(uint256 modelId)\r\n        public\r\n        view\r\n        returns (string memory, string memory, uint256, address, uint256, uint256)\r\n    {\r\n        require(modelId < models.length, \"Invalid model ID\");\r\n\r\n        Model storage model = models[modelId];\r\n\r\n        return (\r\n            model.name,\r\n            model.description,\r\n            model.price,\r\n            model.creator,\r\n            model.averageRating,\r\n            model.totalReviews\r\n        );\r\n    }\r\n\r\n    // Function to retrieve all model IDs\r\n    function getAllModels() public view returns (uint256[] memory) {\r\n        uint256[] memory modelIds = new uint256[](models.length);\r\n        for (uint256 i = 0; i < models.length; i++) {\r\n            modelIds[i] = i;\r\n        }\r\n        return modelIds;\r\n    }\r\n\r\n    // Function to withdraw funds for the owner (contract-level)\r\n    function withdrawFunds() public {\r\n        uint256 balance = address(this).balance;\r\n        require(balance > 0, \"No funds available\");\r\n        payable(msg.sender).transfer(balance);\r\n    }\r\n\r\n    // Fallback function to receive Ether\r\n    receive() external payable {}\r\n}\r\n",
  "sourcePath": "C:\\Users\\User\\Desktop\\decApp\\contracts\\AIModelMarketplace.sol",
  "compiler": {
    "name": "solc",
    "version": "0.8.0+commit.c7dfd78e.Emscripten.clang"
  },
  "schemaVersion": "3.4.16",
  "updatedAt": "2025-01-10T19:52:35.310Z",
  "networkType": "ethereum",
  "devdoc": {
    "kind": "dev",
    "methods": {},
    "version": 1
  },
  "userdoc": {
    "kind": "user",
    "methods": {},
    "version": 1
  }
}