{
  "contractName": "AIModelMarketplace",
  "abi": [
    {
      "anonymous": false,
      "inputs": [
        {
          "indexed": false,
          "internalType": "uint256",
          "name": "modelId",
          "type": "uint256"
        },
        {
          "indexed": false,
          "internalType": "string",
          "name": "name",
          "type": "string"
        },
        {
          "indexed": false,
          "internalType": "uint256",
          "name": "price",
          "type": "uint256"
        },
        {
          "indexed": false,
          "internalType": "address",
          "name": "creator",
          "type": "address"
        }
      ],
      "name": "ModelListed",
      "type": "event"
    },
    {
      "anonymous": false,
      "inputs": [
        {
          "indexed": false,
          "internalType": "uint256",
          "name": "modelId",
          "type": "uint256"
        },
        {
          "indexed": false,
          "internalType": "address",
          "name": "buyer",
          "type": "address"
        }
      ],
      "name": "ModelPurchased",
      "type": "event"
    },
    {
      "anonymous": false,
      "inputs": [
        {
          "indexed": false,
          "internalType": "uint256",
          "name": "modelId",
          "type": "uint256"
        },
        {
          "indexed": false,
          "internalType": "uint8",
          "name": "rating",
          "type": "uint8"
        },
        {
          "indexed": false,
          "internalType": "address",
          "name": "rater",
          "type": "address"
        }
      ],
      "name": "ModelRated",
      "type": "event"
    },
    {
      "inputs": [
        {
          "internalType": "uint256",
          "name": "",
          "type": "uint256"
        },
        {
          "internalType": "address",
          "name": "",
          "type": "address"
        }
      ],
      "name": "hasPurchased",
      "outputs": [
        {
          "internalType": "bool",
          "name": "",
          "type": "bool"
        }
      ],
      "stateMutability": "view",
      "type": "function",
      "constant": true
    },
    {
      "inputs": [
        {
          "internalType": "uint256",
          "name": "",
          "type": "uint256"
        }
      ],
      "name": "models",
      "outputs": [
        {
          "internalType": "string",
          "name": "name",
          "type": "string"
        },
        {
          "internalType": "string",
          "name": "description",
          "type": "string"
        },
        {
          "internalType": "uint256",
          "name": "price",
          "type": "uint256"
        },
        {
          "internalType": "address",
          "name": "creator",
          "type": "address"
        },
        {
          "internalType": "uint256",
          "name": "totalRating",
          "type": "uint256"
        },
        {
          "internalType": "uint256",
          "name": "totalReviews",
          "type": "uint256"
        }
      ],
      "stateMutability": "view",
      "type": "function",
      "constant": true
    },
    {
      "stateMutability": "payable",
      "type": "receive",
      "payable": true
    },
    {
      "inputs": [
        {
          "internalType": "string",
          "name": "name",
          "type": "string"
        },
        {
          "internalType": "string",
          "name": "description",
          "type": "string"
        },
        {
          "internalType": "uint256",
          "name": "price",
          "type": "uint256"
        }
      ],
      "name": "listModel",
      "outputs": [],
      "stateMutability": "nonpayable",
      "type": "function"
    },
    {
      "inputs": [
        {
          "internalType": "uint256",
          "name": "modelId",
          "type": "uint256"
        }
      ],
      "name": "purchaseModel",
      "outputs": [],
      "stateMutability": "payable",
      "type": "function",
      "payable": true
    },
    {
      "inputs": [
        {
          "internalType": "uint256",
          "name": "modelId",
          "type": "uint256"
        },
        {
          "internalType": "uint8",
          "name": "rating",
          "type": "uint8"
        }
      ],
      "name": "rateModel",
      "outputs": [],
      "stateMutability": "nonpayable",
      "type": "function"
    },
    {
      "inputs": [
        {
          "internalType": "uint256",
          "name": "modelId",
          "type": "uint256"
        }
      ],
      "name": "getModelDetails",
      "outputs": [
        {
          "internalType": "string",
          "name": "",
          "type": "string"
        },
        {
          "internalType": "string",
          "name": "",
          "type": "string"
        },
        {
          "internalType": "uint256",
          "name": "",
          "type": "uint256"
        },
        {
          "internalType": "address",
          "name": "",
          "type": "address"
        },
        {
          "internalType": "uint256",
          "name": "",
          "type": "uint256"
        },
        {
          "internalType": "uint256",
          "name": "",
          "type": "uint256"
        }
      ],
      "stateMutability": "view",
      "type": "function",
      "constant": true
    },
    {
      "inputs": [],
      "name": "getAllModels",
      "outputs": [
        {
          "internalType": "uint256[]",
          "name": "",
          "type": "uint256[]"
        }
      ],
      "stateMutability": "view",
      "type": "function",
      "constant": true
    },
    {
      "inputs": [],
      "name": "withdrawFunds",
      "outputs": [],
      "stateMutability": "nonpayable",
      "type": "function"
    }
  ],
  "bytecode": "0x608060405234801561001057600080fd5b50611a37806100206000396000f3fe60806040526004361061007f5760003560e01c80636a030ca91161004e5780636a030ca914610136578063a9a5cb3a14610178578063dc746862146101a3578063dc9da2f8146101bf57610086565b806312ee1c0e1461008b5780631c788a9a146100b457806324600fc3146100dd57806331fc042f146100f457610086565b3661008657005b600080fd5b34801561009757600080fd5b506100b260048036038101906100ad9190610f4e565b6101fc565b005b3480156100c057600080fd5b506100db60048036038101906100d69190611032565b61042b565b005b3480156100e957600080fd5b506100f261062a565b005b34801561010057600080fd5b5061011b60048036038101906101169190610fcd565b6106bc565b60405161012d96959493929190611431565b60405180910390f35b34801561014257600080fd5b5061015d60048036038101906101589190610fcd565b6108e9565b60405161016f96959493929190611431565b60405180910390f35b34801561018457600080fd5b5061018d610a65565b60405161019a91906113f4565b60405180910390f35b6101bd60048036038101906101b89190610fcd565b610b4f565b005b3480156101cb57600080fd5b506101e660048036038101906101e19190610ff6565b610dd5565b6040516101f39190611416565b60405180910390f35b6000811161023f576040517f08c379a000000000000000000000000000000000000000000000000000000000815260040161023690611500565b60405180910390fd5b6000835111610283576040517f08c379a000000000000000000000000000000000000000000000000000000000815260040161027a906115a0565b60405180910390fd5b60008251116102c7576040517f08c379a00000000000000000000000000000000000000000000000000000000081526004016102be906114c0565b60405180910390fd5b60006040518060c001604052808581526020018481526020018381526020013373ffffffffffffffffffffffffffffffffffffffff16815260200160008152602001600081525090806001815401808255809150506001900390600052602060002090600602016000909190919091506000820151816000019080519060200190610353929190610e04565b506020820151816001019080519060200190610370929190610e04565b506040820151816002015560608201518160030160006101000a81548173ffffffffffffffffffffffffffffffffffffffff021916908373ffffffffffffffffffffffffffffffffffffffff1602179055506080820151816004015560a0820151816005015550507f4eed6af0d402cb471979373747ee3f09e77a623bff41d503ce96edacb72d858f600160008054905061040b91906117a9565b84833360405161041e94939291906115e9565b60405180910390a1505050565b6000805490508210610472576040517f08c379a0000000000000000000000000000000000000000000000000000000008152600401610469906114a0565b60405180910390fd5b6001600083815260200190815260200160002060003373ffffffffffffffffffffffffffffffffffffffff1673ffffffffffffffffffffffffffffffffffffffff16815260200190815260200160002060009054906101000a900460ff1661050f576040517f08c379a000000000000000000000000000000000000000000000000000000000815260040161050690611580565b60405180910390fd5b60008160ff16118015610526575060058160ff1611155b610565576040517f08c379a000000000000000000000000000000000000000000000000000000000815260040161055c90611560565b60405180910390fd5b60008083815481106105a0577f4e487b7100000000000000000000000000000000000000000000000000000000600052603260045260246000fd5b906000526020600020906006020190508160ff168160040160008282546105c79190611722565b9250508190555060018160050160008282546105e39190611722565b925050819055507f4129c8696bb756892ebbda9c4396a685357b1f8eddd505fee0f194e56f8c9a2b83833360405161061d93929190611635565b60405180910390a1505050565b600047905060008111610672576040517f08c379a0000000000000000000000000000000000000000000000000000000008152600401610669906114e0565b60405180910390fd5b3373ffffffffffffffffffffffffffffffffffffffff166108fc829081150290604051600060405180830381858888f193505050501580156106b8573d6000803e3d6000fd5b5050565b606080600080600080600080549050871061070c576040517f08c379a0000000000000000000000000000000000000000000000000000000008152600401610703906114a0565b60405180910390fd5b6000808881548110610747577f4e487b7100000000000000000000000000000000000000000000000000000000600052603260045260246000fd5b9060005260206000209060060201905060008082600501541161076b576000610780565b8160050154826004015461077f9190611778565b5b9050816000018260010183600201548460030160009054906101000a900473ffffffffffffffffffffffffffffffffffffffff168486600501548580546107c690611874565b80601f01602080910402602001604051908101604052809291908181526020018280546107f290611874565b801561083f5780601f106108145761010080835404028352916020019161083f565b820191906000526020600020905b81548152906001019060200180831161082257829003601f168201915b5050505050955084805461085290611874565b80601f016020809104026020016040519081016040528092919081815260200182805461087e90611874565b80156108cb5780601f106108a0576101008083540402835291602001916108cb565b820191906000526020600020905b8154815290600101906020018083116108ae57829003601f168201915b50505050509450975097509750975097509750505091939550919395565b600081815481106108f957600080fd5b906000526020600020906006020160009150905080600001805461091c90611874565b80601f016020809104026020016040519081016040528092919081815260200182805461094890611874565b80156109955780601f1061096a57610100808354040283529160200191610995565b820191906000526020600020905b81548152906001019060200180831161097857829003601f168201915b5050505050908060010180546109aa90611874565b80601f01602080910402602001604051908101604052809291908181526020018280546109d690611874565b8015610a235780601f106109f857610100808354040283529160200191610a23565b820191906000526020600020905b815481529060010190602001808311610a0657829003601f168201915b5050505050908060020154908060030160009054906101000a900473ffffffffffffffffffffffffffffffffffffffff16908060040154908060050154905086565b60606000808054905067ffffffffffffffff811115610aad577f4e487b7100000000000000000000000000000000000000000000000000000000600052604160045260246000fd5b604051908082528060200260200182016040528015610adb5781602001602082028036833780820191505090505b50905060005b600080549050811015610b475780828281518110610b28577f4e487b7100000000000000000000000000000000000000000000000000000000600052603260045260246000fd5b6020026020010181815250508080610b3f906118a6565b915050610ae1565b508091505090565b6000805490508110610b96576040517f08c379a0000000000000000000000000000000000000000000000000000000008152600401610b8d906114a0565b60405180910390fd5b6000808281548110610bd1577f4e487b7100000000000000000000000000000000000000000000000000000000600052603260045260246000fd5b9060005260206000209060060201905080600201543414610c27576040517f08c379a0000000000000000000000000000000000000000000000000000000008152600401610c1e90611540565b60405180910390fd5b6001600083815260200190815260200160002060003373ffffffffffffffffffffffffffffffffffffffff1673ffffffffffffffffffffffffffffffffffffffff16815260200190815260200160002060009054906101000a900460ff1615610cc5576040517f08c379a0000000000000000000000000000000000000000000000000000000008152600401610cbc90611520565b60405180910390fd5b600180600084815260200190815260200160002060003373ffffffffffffffffffffffffffffffffffffffff1673ffffffffffffffffffffffffffffffffffffffff16815260200190815260200160002060006101000a81548160ff0219169083151502179055508060030160009054906101000a900473ffffffffffffffffffffffffffffffffffffffff1673ffffffffffffffffffffffffffffffffffffffff166108fc349081150290604051600060405180830381858888f19350505050158015610d97573d6000803e3d6000fd5b507fc8581808129c51c0416692a5ea1b58e080ae8f21e384eefe2f2dc85d231d12ba8233604051610dc99291906115c0565b60405180910390a15050565b60016020528160005260406000206020528060005260406000206000915091509054906101000a900460ff1681565b828054610e1090611874565b90600052602060002090601f016020900481019282610e325760008555610e79565b82601f10610e4b57805160ff1916838001178555610e79565b82800160010185558215610e79579182015b82811115610e78578251825591602001919060010190610e5d565b5b509050610e869190610e8a565b5090565b5b80821115610ea3576000816000905550600101610e8b565b5090565b6000610eba610eb58461169d565b61166c565b905082815260208101848484011115610ed257600080fd5b610edd848285611832565b509392505050565b600081359050610ef4816119bc565b92915050565b600082601f830112610f0b57600080fd5b8135610f1b848260208601610ea7565b91505092915050565b600081359050610f33816119d3565b92915050565b600081359050610f48816119ea565b92915050565b600080600060608486031215610f6357600080fd5b600084013567ffffffffffffffff811115610f7d57600080fd5b610f8986828701610efa565b935050602084013567ffffffffffffffff811115610fa657600080fd5b610fb286828701610efa565b9250506040610fc386828701610f24565b9150509250925092565b600060208284031215610fdf57600080fd5b6000610fed84828501610f24565b91505092915050565b6000806040838503121561100957600080fd5b600061101785828601610f24565b925050602061102885828601610ee5565b9150509250929050565b6000806040838503121561104557600080fd5b600061105385828601610f24565b925050602061106485828601610f39565b9150509250929050565b600061107a83836113c7565b60208301905092915050565b61108f816117dd565b82525050565b60006110a0826116dd565b6110aa8185611700565b93506110b5836116cd565b8060005b838110156110e65781516110cd888261106e565b97506110d8836116f3565b9250506001810190506110b9565b5085935050505092915050565b6110fc816117ef565b82525050565b600061110d826116e8565b6111178185611711565b9350611127818560208601611841565b611130816119ab565b840191505092915050565b6000611148601083611711565b91507f496e76616c6964206d6f64656c204944000000000000000000000000000000006000830152602082019050919050565b6000611188601d83611711565b91507f4d6f64656c206465736372697074696f6e2069732072657175697265640000006000830152602082019050919050565b60006111c8601283611711565b91507f4e6f2066756e647320617661696c61626c6500000000000000000000000000006000830152602082019050919050565b6000611208601f83611711565b91507f5072696365206d7573742062652067726561746572207468616e207a65726f006000830152602082019050919050565b6000611248602583611711565b91507f596f75206861766520616c72656164792070757263686173656420746869732060008301527f6d6f64656c0000000000000000000000000000000000000000000000000000006020830152604082019050919050565b60006112ae601883611711565b91507f496e636f7272656374207061796d656e7420616d6f756e7400000000000000006000830152602082019050919050565b60006112ee601e83611711565b91507f526174696e67206d757374206265206265747765656e203120616e64203500006000830152602082019050919050565b600061132e602983611711565b91507f596f75206d75737420707572636861736520746865206d6f64656c206265666f60008301527f726520726174696e6700000000000000000000000000000000000000000000006020830152604082019050919050565b6000611394601683611711565b91507f4d6f64656c206e616d65206973207265717569726564000000000000000000006000830152602082019050919050565b6113d08161181b565b82525050565b6113df8161181b565b82525050565b6113ee81611825565b82525050565b6000602082019050818103600083015261140e8184611095565b905092915050565b600060208201905061142b60008301846110f3565b92915050565b600060c082019050818103600083015261144b8189611102565b9050818103602083015261145f8188611102565b905061146e60408301876113d6565b61147b6060830186611086565b61148860808301856113d6565b61149560a08301846113d6565b979650505050505050565b600060208201905081810360008301526114b98161113b565b9050919050565b600060208201905081810360008301526114d98161117b565b9050919050565b600060208201905081810360008301526114f9816111bb565b9050919050565b60006020820190508181036000830152611519816111fb565b9050919050565b600060208201905081810360008301526115398161123b565b9050919050565b60006020820190508181036000830152611559816112a1565b9050919050565b60006020820190508181036000830152611579816112e1565b9050919050565b6000602082019050818103600083015261159981611321565b9050919050565b600060208201905081810360008301526115b981611387565b9050919050565b60006040820190506115d560008301856113d6565b6115e26020830184611086565b9392505050565b60006080820190506115fe60008301876113d6565b81810360208301526116108186611102565b905061161f60408301856113d6565b61162c6060830184611086565b95945050505050565b600060608201905061164a60008301866113d6565b61165760208301856113e5565b6116646040830184611086565b949350505050565b6000604051905081810181811067ffffffffffffffff821117156116935761169261197c565b5b8060405250919050565b600067ffffffffffffffff8211156116b8576116b761197c565b5b601f19601f8301169050602081019050919050565b6000819050602082019050919050565b600081519050919050565b600081519050919050565b6000602082019050919050565b600082825260208201905092915050565b600082825260208201905092915050565b600061172d8261181b565b91506117388361181b565b9250827fffffffffffffffffffffffffffffffffffffffffffffffffffffffffffffffff0382111561176d5761176c6118ef565b5b828201905092915050565b60006117838261181b565b915061178e8361181b565b92508261179e5761179d61191e565b5b828204905092915050565b60006117b48261181b565b91506117bf8361181b565b9250828210156117d2576117d16118ef565b5b828203905092915050565b60006117e8826117fb565b9050919050565b60008115159050919050565b600073ffffffffffffffffffffffffffffffffffffffff82169050919050565b6000819050919050565b600060ff82169050919050565b82818337600083830152505050565b60005b8381101561185f578082015181840152602081019050611844565b8381111561186e576000848401525b50505050565b6000600282049050600182168061188c57607f821691505b602082108114156118a05761189f61194d565b5b50919050565b60006118b18261181b565b91507fffffffffffffffffffffffffffffffffffffffffffffffffffffffffffffffff8214156118e4576118e36118ef565b5b600182019050919050565b7f4e487b7100000000000000000000000000000000000000000000000000000000600052601160045260246000fd5b7f4e487b7100000000000000000000000000000000000000000000000000000000600052601260045260246000fd5b7f4e487b7100000000000000000000000000000000000000000000000000000000600052602260045260246000fd5b7f4e487b7100000000000000000000000000000000000000000000000000000000600052604160045260246000fd5b6000601f19601f8301169050919050565b6119c5816117dd565b81146119d057600080fd5b50565b6119dc8161181b565b81146119e757600080fd5b50565b6119f381611825565b81146119fe57600080fd5b5056fea26469706673582212207d5fa7280054b5193f61822b63ecefbcbf40e05a4c4db5792a528d6338b2c3f364736f6c63430008000033",
  "immutableReferences": {},
  "source": "// SPDX-License-Identifier: MIT\r\npragma solidity ^0.8.0;\r\n\r\ncontract AIModelMarketplace {\r\n    struct Model {\r\n        string name;\r\n        string description;\r\n        uint256 price;\r\n        address creator;\r\n        uint256 totalRating;\r\n        uint256 totalReviews;\r\n    }\r\n\r\n    // Array to store all models\r\n    Model[] public models;\r\n\r\n    // Mapping to track which users purchased which models\r\n    mapping(uint256 => mapping(address => bool)) public hasPurchased;\r\n\r\n    // Event declarations for better logging\r\n    event ModelListed(uint256 modelId, string name, uint256 price, address creator);\r\n    event ModelPurchased(uint256 modelId, address buyer);\r\n    event ModelRated(uint256 modelId, uint8 rating, address rater);\r\n\r\n    // Function to list a new AI model\r\n    function listModel(string memory name, string memory description, uint256 price) public {\r\n        require(price > 0, \"Price must be greater than zero\");\r\n        require(bytes(name).length > 0, \"Model name is required\");\r\n        require(bytes(description).length > 0, \"Model description is required\");\r\n\r\n        models.push(Model({\r\n            name: name,\r\n            description: description,\r\n            price: price,\r\n            creator: msg.sender,\r\n            totalRating: 0,\r\n            totalReviews: 0\r\n        }));\r\n\r\n        // Emit event for successful listing\r\n        emit ModelListed(models.length - 1, name, price, msg.sender);\r\n    }\r\n\r\n    // Function to purchase a model\r\n    function purchaseModel(uint256 modelId) public payable {\r\n        require(modelId < models.length, \"Invalid model ID\");\r\n        Model storage model = models[modelId];\r\n\r\n        require(msg.value == model.price, \"Incorrect payment amount\");\r\n        require(!hasPurchased[modelId][msg.sender], \"You have already purchased this model\");\r\n\r\n        hasPurchased[modelId][msg.sender] = true;\r\n\r\n        // Transfer payment to the creator\r\n        payable(model.creator).transfer(msg.value);\r\n\r\n        // Emit event for successful purchase\r\n        emit ModelPurchased(modelId, msg.sender);\r\n    }\r\n\r\n    // Function to rate a purchased model\r\n    function rateModel(uint256 modelId, uint8 rating) public {\r\n        require(modelId < models.length, \"Invalid model ID\");\r\n        require(hasPurchased[modelId][msg.sender], \"You must purchase the model before rating\");\r\n        require(rating > 0 && rating <= 5, \"Rating must be between 1 and 5\");\r\n\r\n        Model storage model = models[modelId];\r\n\r\n        model.totalRating += rating;\r\n        model.totalReviews += 1;\r\n\r\n        // Emit event for successful rating\r\n        emit ModelRated(modelId, rating, msg.sender);\r\n    }\r\n\r\n    // Function to retrieve model details\r\n    function getModelDetails(uint256 modelId)\r\n        public\r\n        view\r\n        returns (string memory, string memory, uint256, address, uint256, uint256)\r\n    {\r\n        require(modelId < models.length, \"Invalid model ID\");\r\n\r\n        Model storage model = models[modelId];\r\n        uint256 averageRating = model.totalReviews > 0 ? model.totalRating / model.totalReviews : 0;\r\n\r\n        return (\r\n            model.name,\r\n            model.description,\r\n            model.price,\r\n            model.creator,\r\n            averageRating,\r\n            model.totalReviews\r\n        );\r\n    }\r\n\r\n    // Function to retrieve all model IDs\r\n    function getAllModels() public view returns (uint256[] memory) {\r\n        uint256[] memory modelIds = new uint256[](models.length);\r\n        for (uint256 i = 0; i < models.length; i++) {\r\n            modelIds[i] = i;\r\n        }\r\n        return modelIds;\r\n    }\r\n\r\n    // Function to withdraw funds (contract-level, if applicable)\r\n    function withdrawFunds() public {\r\n        uint256 balance = address(this).balance;\r\n        require(balance > 0, \"No funds available\");\r\n        payable(msg.sender).transfer(balance);\r\n    }\r\n\r\n    // Fallback function to receive Ether\r\n    receive() external payable {}\r\n}\r\n",
  "sourcePath": "C:\\Users\\User\\Desktop\\decApp\\contracts\\AIModelMarketplace.sol",
  "compiler": {
    "name": "solc",
    "version": "0.8.0+commit.c7dfd78e.Emscripten.clang"
  },
  "schemaVersion": "3.4.16",
  "updatedAt": "2025-01-08T21:01:47.361Z",
  "networkType": "ethereum",
  "devdoc": {
    "kind": "dev",
    "methods": {},
    "version": 1
  },
  "userdoc": {
    "kind": "user",
    "methods": {},
    "version": 1
  }
}